:100000000C94AD030C94D5030C94D5030C94D50338
:100010000C94D5030C94D5030C94D5030C94D50300
:100020000C94D5030C94D5030C94AD100C941C11B6
:100030000C94D5030C94D5030C94D5030C94D503E0
:100040000C94D5030C94D5030C94D5030C94D503D0
:100050000C94D5030C94D5030C94D5030C944E1337
:100060000C94D5030C94D5030C94D5030C94D503B0
:100070000C94D5030C94D5030C94D5030C94D503A0
:100080000C94D5030C94D5030C94D5030C94D50390
:100090000C94D5030C94D5030C94D5030C94D50380
:1000A0000C94D5030C94D5030C94D50300000600E2
:1000B0000C00120019001F0025002B003100380031
:1000C0003E0044004A00500056005C00610067009A
:1000D0006D00730078007E00830088008E0093001E
:1000E00098009D00A200A700AB00B000B500B900C9
:1000F000BD00C100C500C900CD00D100D400D800AA
:10010000DB00DE00E100E400E700EA00EC00EE00C6
:10011000F100F300F400F600F800F900FB00FC0029
:10012000FD00FE00FE00FF00FF00FF0000000000D9
:10013000003E5B4F5B3E3E6B4F6B3E1C3E7C3E1C6D
:10014000183C7E3C181C577D571C1C5E7F5E1C00B3
:10015000183C1800FFE7C3E7FF0018241800FFE76A
:10016000DBE7FF30483A060E2629792926407F052D
:100170000507407F05253F5A3CE73C5A7F3E1C1C43
:1001800008081C1C3E7F14227F22145F5F005F5F03
:1001900006097F017F006689956A606060606094EF
:1001A000A2FFA29408047E040810207E20100808F4
:1001B0002A1C08081C2A08081E101010100C1E0CFF
:1001C0001E0C30383E3830060E3E0E060000000091
:1001D0000000005F00000007000700147F147F1478
:1001E000242A7F2A122313086462364956205000BD
:1001F00008070300001C2241000041221C002A1CA9
:100200007F1C2A08083E0808008070300008080893
:100210000808000060600020100804023E514945B3
:100220003E00427F400072494949462141494D33D1
:100230001814127F1027454545393C4A4949314138
:10024000211109073649494936464949291E000006
:10025000140000004034000000081422411414145B
:100260001414004122140802015909063E415D5947
:100270004E7C1211127C7F494949363E4141412250
:100280007F4141413E7F494949417F090909013E7A
:10029000414151737F0808087F00417F41002040A1
:1002A000413F017F081422417F404040407F021CB3
:1002B000027F7F0408107F3E4141413E7F090909CA
:1002C000063E4151215E7F09192946264949493296
:1002D00003017F01033F4040403F1F2040201F3F5C
:1002E0004038403F631408146303047804036159E1
:1002F000494D43007F414141020408102000414123
:10030000417F0402010204404040404000030708CE
:100310000020545478407F284444383844444428CA
:10032000384444287F385454541800087E09021871
:10033000A4A49C787F0804047800447D40002040F9
:10034000403D007F1028440000417F40007C04783D
:1003500004787C080404783844444438FC18242485
:100360001818242418FC7C08040408485454542405
:1003700004043F44243C4040207C1C2040201C3C82
:100380004030403C44281028444C9090907C446479
:10039000544C44000836410000007700000041360C
:1003A000080002010204023C2623263C1EA1A16192
:1003B000123A4040207A38545455592155557941C4
:1003C0002154547841215554784020545579400C9B
:1003D0001E5272123955555559395454545939557C
:1003E0005454580000457C410002457D42000145BF
:1003F0007C40F0292429F0F0282528F07C5455452C
:10040000002054547C547C0A097F493249494932BE
:100410003248484832324A4848303A4141217A3AD3
:1004200042402078009DA0A07D39444444393D409D
:1004300040403D3C24FF2424487E4943662B2FFC4A
:100440002F2BFF0929F620C0887E090320545479F8
:10045000410000447D413048484A32384040227AC9
:10046000007A0A0A727D0D19317D2629292F282646
:100470002929292630484D4020380808080808084E
:100480000808382F10C8ACBA2F102834FA00007BA7
:10049000000008142A142222142A140895002200AD
:1004A00095AA005500AAAA55AA55AA000000FF0067
:1004B000101010FF00141414FF001010FF00FF10A4
:1004C00010F010F0141414FC001414F700FF0000D6
:1004D000FF00FF1414F404FC141417101F10101F55
:1004E000101F1414141F00101010F0000000001F43
:1004F000101010101F10101010F010000000FF104E
:100500001010101010101010FF10000000FF140049
:1005100000FF00FF00001F10170000FC04F414147B
:100520001710171414F404F40000FF00F714141447
:1005300014141414F700F7141414171410101F10C7
:100540001F141414F4141010F010F000001F101FEA
:100550000000001F14000000FC140000F010F01058
:1005600010FF10FF141414FF141010101F000000CF
:1005700000F010FFFFFFFFFFF0F0F0F0F0FFFFFFD3
:100580000000000000FFFF0F0F0F0F0F384444382A
:10059000447C2A2A3E147E02020606027E027E0265
:1005A00063554941633844443C04407E201E200684
:1005B000027E020299A5E7A5991C2A492A1C4C72C1
:1005C00001724C304A4D4D303048784830BC625A48
:1005D000463D3E494949007E0101017E2A2A2A2AD8
:1005E0002A44445F444440514A444040444A5140B4
:1005F0000000FF0103E080FF000008086B6B083675
:1006000012362436060F090F0600001818000000E5
:100610001010003040FF0101001F01011E00191DD4
:100620001712003C3C3C3C0000000000080B00029C
:10063000020200000904000001020200000524007B
:10064000100105240101010424020605240600010D
:100650000705810310004009040100020A000000A0
:100660000705020240000007058302400000040362
:10067000090412010002EF0201404123368000010B
:100680000102030141726475696E6F204C4C430096
:1006900041726475626F7900F0F89C8E8783878E53
:1006A0009CF8F00000FEFF0303030303070EFCF8B1
:1006B0000000FEFF0303030303070EFCF80000FF26
:1006C000FF00000000000000FFFF0000FEFF83832A
:1006D000838383C7EE7C380000F8FC0E0703030316
:1006E000070EFCF800003F7FE0C08080C0E07F3F45
:1006F000FFFF01010101010101FFFF0000FFFF0CED
:100700000C0C0C1C3E77E3C100007FFFC0C0C0C0D2
:10071000C0E0703F1F00001F3F70E0C0C0C0E0702D
:100720003F1F00007FFFC1C1C1C1C1E3773E1C0074
:10073000001F3F70E0C0C0C0E0703F1F000000001D
:100740000001FFFF01000000D5F08D14A1C881CF8A
:10075000D9F1AF200000A614AB2A11241FBECFEFA1
:10076000DAE0DEBFCDBF11E0A0E0B1E0E8E1FDE5F9
:1007700002C005900D92AA3EB107D9F727E0AAEE74
:10078000B1E001C01D92AA38B207E1F713E0CCEA4C
:10079000D3E004C02197FE010E94792ECB3AD10705
:1007A000C9F70E9471150C947F2E0C940000CF9312
:1007B000DF93CDB7DEB76D817E818F819885DF9124
:1007C000CF9108951F93CF93DF93182FC0911506F3
:1007D000D09116068A3041F4E881F9810190F081C8
:1007E000E02D6DE0CE010995E881F9810190F0815D
:1007F000E02D612FCE01099521E030E0019711F441
:1008000030E020E0C901DF91CF911F910895CF938F
:10081000DF93C0911506D0911606E881F981008416
:10082000F185E02DCE010995892BB9F3E881F98195
:100830000284F385E02DCE01DF91CF910994E3E1AD
:10084000F2E0A0E0B8E000800EBC8111012C11970D
:10085000A0FDFDCF0192B9F70DB40895FC01809180
:100860001202882311F13FB7F89482E08093E900E7
:100870002091F200822F90E01816190614F481E0FE
:1008800090E0882339F0289844E640931102409183
:10089000F1004083222339F02091F200211103C09E
:1008A0002BE62093E8003FBF08958FEF9FEF089558
:1008B0002FB7F89483E08093E9009091E800892FA6
:1008C000807295FF04C09091F20080E4891B2FBFD5
:1008D00008958091090281110DC082E08093050284
:1008E00084E080930602109208021092070281E0D1
:1008F0008093090285E092E008954091F1015091C2
:10090000F2012091EF013091F00142175307B4F446
:100910009091E8009570E1F39091E80092FD19C084
:100920008093F1008091F1019091F20101968F7313
:100930009927892B19F48EEF8093E8008091F101BB
:100940009091F20101969093F2018093F10181E080
:10095000089580E00895DF92EF92FF920F931F9326
:10096000CF93DF93D82E8A01EB017B01E40EF51EB5
:10097000CE15DF0559F0D7FE12C0FE0184910E940A
:100980007D0421968111F4CF0FEF1FEFC801DF9195
:10099000CF911F910F91FF90EF90DF900895888184
:1009A000EECF0F931F93CF93DF931F92CDB7DEB798
:1009B00082E0898342E450E06CE276E080E80E94C5
:1009C000AB040E946904DC0112960D911C91011583
:1009D000110589F0D801ED91FC910280F381E02DA1
:1009E000BE016F5F7F4FC801099597FD04C0F801F4
:1009F00000851185ECCF89810F90DF91CF911F91F8
:100A00000F910895615030F02091F100FC01208396
:100A10000196F8CF289884E6809311020895DC01AE
:100A2000ED91FC910190F081E02D0994AF92BF927D
:100A3000CF92DF92EF92FF920F931F93CF93DF93AA
:100A40006C017B018B01040F151FEB015E01AE18D9
:100A5000BF08C017D10759F06991D601ED91FC91FB
:100A60000190F081E02DC6010995892B79F7C50128
:100A7000DF91CF911F910F91FF90EF90DF90CF907A
:100A8000BF90AF900895CF93DF931F92CDB7DEB79D
:100A90006983DC01ED91FC910280F381E02D41E05E
:100AA00050E0BE016F5F7F4F09950F90DF91CF91AE
:100AB000089583E08093E9008091F200882319F083
:100AC0008AE38093E80008950E94580490E0089516
:100AD000CF93DF931F92CDB7DEB7FC018485958558
:100AE00097FD08C02FEF3FEF358724870F90DF91E8
:100AF000CF910895CE0101960E942E04019719F41A
:100B0000898190E0F3CF8FEF9FEFF0CF0F931F938A
:100B1000CF93DF931F92CDB7DEB78C01FC018485A4
:100B2000958597FF0BC0CE0101960E942E04019778
:100B300071F4898190E0F80195878487F8018485B4
:100B400095850F90DF91CF911F910F9108958FEFB1
:100B50009FEFF1CFFC018485958597FD0BC09FB772
:100B6000F89482E08093E9008091F2009FBF90E0CA
:100B7000019608959FB7F89482E08093E9008091F0
:100B8000F2009FBF90E008953FB7F8948091EB0189
:100B90009091EC01A091ED01B091EE0126B5A89BDA
:100BA00005C02F3F19F00196A11DB11D3FBFBA2FFF
:100BB000A92F982F8827BC01CD01620F711D811DBF
:100BC000911D42E0660F771F881F991F4A95D1F744
:100BD00008958F929F92AF92BF92CF92DF92EF9241
:100BE000FF926B017C010E94C4054B015C01C114A2
:100BF000D104E104F104B9F00E94C405681979092F
:100C00008A099B09683E73408105910580F321E0C4
:100C1000C21AD108E108F10888EE880E83E0981E18
:100C2000A11CB11CE4CFFF90EF90DF90CF90BF905C
:100C3000AF909F908F9008958F929F92AF92BF92A6
:100C4000CF92DF92EF92FF920F931F93CF93DF9398
:100C50006C017B018A0180910B01882309F45CC03F
:100C600080911202882309F457C08091F50180FF1A
:100C700005C08091E00082608093E000E801B12C23
:100C80008AEFA82E93E0892E2AE3922E209711F462
:100C9000BB20D9F10E94580481110AC0AA94AA204D
:100CA000D9F161E070E080E090E00E94E905EECFCC
:100CB0008C171D0611F00CF08C2F9FB7F8948092C2
:100CC000E9002091E80025FD02C09FBFDFCF282F5B
:100CD00030E0C21BD30BF701815020F041914093CB
:100CE000F100FACFE20EF31EBB2021F09092E80053
:100CF000B12CEBCF8091E80085FDE7CF9092E80022
:100D0000BB24B394209709F3F3CF5D9884E68093D6
:100D1000F401101611063CF081E090E0F601938397
:100D2000828310E000E0C801DF91CF911F910F9105
:100D3000FF90EF90DF90CF90BF90AF909F908F90FB
:100D40000895CB0108954F925F926F927F92BF9268
:100D5000CF92DF92EF92FF920F931F93CF93DF9387
:100D6000EC0129013A018B01C12CD12C7601C4146C
:100D7000D504E604F7040CF03FC0F801B1908F01F0
:100D80008F8580FF0BC0E881F9810084F185E02D1B
:100D900020E144E070E060E0CE010995EB85FC8540
:100DA0008D859E85E817F90760F4B0828B859C8558
:100DB00001969C878B872FEFC21AD20AE20AF20AA9
:100DC000D6CF6B2D70E0E881F981028CF38DE02D98
:100DD000CE010995019679F7C701B601DF91CF9150
:100DE0001F910F91FF90EF90DF90CF90BF907F9079
:100DF0006F905F904F90089573016201EDCFCF9394
:100E0000DF93EC01E881F9810288F389E02D0995EF
:100E10008F3F980731F02D813E812F5F3F4F3E83FA
:100E20002D83DF91CF9108958FEF9FEF089560E0BC
:100E300070E0CB01089590E080E00895FF920F9359
:100E40001F93CF93DF938C01EB016F3F7607B9F0CF
:100E5000F62EEAE06E1306C06DE0F80180899189F4
:100E60000E940F056F2DF801808991890E940F055E
:100E7000CE01DF91CF911F910F91FF900895D0E0A7
:100E8000C0E0F6CF7F928F929F92AF92BF92CF92A7
:100E9000DF92EF92FF920F931F93CF93DF938C011A
:100EA00049015A01EB01C12CD12C7601C814D90497
:100EB000EA04FB04B4F479908AE0781206C06DE08D
:100EC000F801808991890E940F05672DF8018089BA
:100ED00091890E940F05FFEFCF1ADF0AEF0AFF0A80
:100EE000E5CFC501B401DF91CF911F910F91FF9024
:100EF000EF90DF90CF90BF90AF909F908F907F90BA
:100F00000895CF93DF93EC0188899989DC01ED91F5
:100F1000FC910084F185E02D0995892BA9F388893E
:100F20009989DC01ED91FC910284F385E02DDF913C
:100F3000CF910994CF93DF93EC0188899989DC01E3
:100F4000ED91FC910084F185E02D0995892BA9F3A1
:100F500088899989DC01ED91FC910484F585E02D67
:100F6000DF91CF9109948F929F92AF92BF92CF92CF
:100F7000DF92EF92FF920F931F93CF93DF938C0139
:100F800049015A01EB01C12CD12C7601D8015096B0
:100F90008D919C91DC01ED91FC910284F385E02D13
:100FA00009958F3F61F0C814D904EA04FB043CF4AE
:100FB0008993BFEFCB1ADB0AEB0AFB0AE7CFC70125
:100FC000B601DF91CF911F910F91FF90EF90DF90CD
:100FD000CF90BF90AF909F908F900895DC01509676
:100FE0008D919C91DC01ED91FC910084F185E02DC7
:100FF000099490E080E0089590E080E0089590E00A
:1010000080E0089508950895DC01ED91FC913697F4
:101010000190F081E02DE80FF91F8DE791E09183B9
:10102000808387E891E09783868308952DE731E0F8
:10103000FC013183208327E831E03783268308953C
:10104000FB0120813181FC0131832083FB0142813E
:10105000538126503109F90120813181820F931F7C
:10106000FC0151834083089529E931E0FC0131837B
:10107000208323EA31E0318F208F6DE871E00C94FA
:101080002008DC01ED91FC91369720813181820F9F
:10109000931F0C9434080895DC01ED91FC91369770
:1010A0000190F081E02DE80FF91F89E691E091832E
:1010B000808383E791E093838283089529E631E07A
:1010C000FC013183208323E731E0338322830895B9
:1010D000FB0120813181FC0131832083FB014281AE
:1010E000538126503109F90120813181820F931FEC
:1010F000FC0151834083089525EB31E0FC013183ED
:1011000020832FEB31E0358B248B69EA71E00C945E
:101110006808DC01ED91FC91369720813181820FC6
:10112000931F0C947C08089508952D9A0895BC018E
:1011300090E080E00C94E9058FB18095807F669BFC
:1011400088601C9B8460089590910302982329F481
:1011500090910402982381E009F480E0089580E0F2
:101160000C941F0480389105B8F460347105A0F424
:1011700020E191E061FD94E060FD990F62FD9295A0
:10118000687F269FD0011124A80FAD5EBD4F8C91C2
:1011900040FF03C0892B8C93089590958923FBCF42
:1011A0002F923F924F925F926F927F928F929F9277
:1011B000AF92BF92CF92DF92EF92FF920F931F9365
:1011C000CF93DF93EC018B017A016901C61AD70A2C
:1011D000D7FE03C0D194C194D10847018C1A9D0A4F
:1011E00097FE03C09194819491088C149D0454F44B
:1011F0009E2D8F2D7901292F382F9C2F8D2FE801BF
:10120000092F182FEC16FD0654F4902F812F890119
:10121000292F382F9C2F8D2FE701E92EF82E17014B
:101220002C1A3D0A2901401A510A57FE03C0519455
:1012300041945108310137FE03C08FEF681A780AD4
:10124000759467948FEF021713070CF481E0A82EB2
:10125000880FBB08EC16FD06A4F041E0BE01C801F2
:101260008C149D0414F0B801CE010E94B2086418D9
:10127000750877FE04C00A0D1B1D620C731C2196B5
:10128000E9CFDF91CF911F910F91FF90EF90DF9009
:10129000CF90BF90AF909F908F907F906F905F9016
:1012A0004F903F902F9008958F929F92AF92BF9250
:1012B000CF92DF92EF92FF920F931F93CF93DF9322
:1012C0006D3089F0C0900102D09002026A30D1F4F2
:1012D000109200021092FF0188E0C80ED11CD0923B
:1012E0000202C092010281E090E0DF91CF911F9154
:1012F0000F91FF90EF90DF90CF90BF90AF909F90B5
:101300008F9008950091FF0110910002E5E06E9F1B
:10131000E0011124C45DDE4F4801F12CF5E0E12C21
:10132000FF1629F0CE010196FE01E490EC01B12CEC
:10133000A12C4E2D4170B6016A0D7B1DC4010E9487
:10134000B208E694FFEFAF1ABF0A88E0A816B1040E
:1013500081F7F394EFEF8E1A9E0AF6E0FF12DECFCC
:101360000A5F1F4F109300020093FF01BCCFFC01E6
:1013700020813181DB018D919C91119728173907CC
:1013800070F02817390749F481E0428153811296A1
:101390002D913C914217530708F080E0089581E0B9
:1013A0000895EF92FF920F931F93CF93DF9300D096
:1013B00000D0CDB7DEB78C017B01809119079091E9
:1013C0001A07D80112969C938E931197D801119603
:1013D000ED91FC9180911B0790911C078E179F0740
:1013E00089F10480F581E02D8DB79EB78055910974
:1013F0000FB6F8949EBF0FBE8DBFADB7BEB71196A6
:1014000080E501900D928A95E1F7E0912007F09137
:101410002107099569837A838B839C830FB6F8949F
:10142000DEBF0FBECDBFB701CE0101960E94B70946
:10143000882341F0D8011196ED91FC911297828199
:101440009381C0CFC8010F900F900F900F90DF9144
:10145000CF911F910F91FF90EF900895FC01228191
:10146000338137FF03C0319521953109FC0140815B
:10147000518157FF03C0519541955109BA01C901E6
:1014800008958F929F92AF92BF92CF92DF92EF9288
:10149000FF920F931F93CF93DF93EC018A01198280
:1014A00018821B821A821D821C821F821E8219864C
:1014B00018861B861A861D861C861F861E86198A1C
:1014C000188A83E390E09F8B8E8BFB018081918152
:1014D000A281B3818A8B9B8BAC8BBD8B598F488F3C
:1014E0004D3FFFE75F070CF054C09A01550F440BC6
:1014F000550BC12CD12C7601E394C701B6010E9493
:101500007B2C3B8F2A8FAC89BD894A895B899D01E1
:101510000E946A2E872E982EA92EBB24A7FCBA946F
:101520009A01DA010E946A2E672F782F892F992756
:1015300087FD9A959401260F371FD8010E946A2EC5
:10154000672F782F892F992787FD9A95072E000CF2
:10155000880B990B982F872F762F662720E03CE089
:1015600040E050E00E947B2C3D8F2C8FC701B601DC
:101570000E947B2C3F8F2E8FDF91CF911F910F9177
:10158000FF90EF90DF90CF90BF90AF909F908F90A3
:1015900008951B8E1A8E8DEF9FE79D8F8C8F1F8E67
:1015A0001E8EEACFFC012081318137FF09C021382E
:1015B00018F42227C901089580E091E0930F08955F
:1015C00027FFF7CF932F222311F091E0930F80E0B4
:1015D00008958F929F92AF92BF92CF92DF92EF9237
:1015E000FF92CF93DF93FC01DB011296CD91DC914A
:1015F0001397ED90FC90A281B38197010E946A2E0F
:10160000872E982EA92EBB24A7FCBA94A681B78159
:101610009E010E946A2E672F782F892F992787FDB8
:101620009A95860E971EA081B18197010E946A2E1D
:10163000C72ED82EE92EFF24E7FCFA94A481B581A9
:101640009E010E946A2E672F782F892F992787FD88
:101650009A95C60ED71EB601C401DF91CF91FF90B7
:10166000EF90DF90CF90BF90AF909F908F900895B4
:101670006F927F928F929F92AF92BF92CF92DF92A2
:10168000EF92FF920F931F93CF93DF93CDB7DEB707
:101690002C970FB6F894DEBF0FBECDBF7C016B0157
:1016A0003A014901B801D90112962D913C91139745
:1016B00016968D919C91179714964D915C91159764
:1016C000ED91FC91FA83E9835C834B833E832D8308
:1016D00098878F83CE0101960E94E90A222733273B
:1016E000281B390B7195619571097A8769873C8749
:1016F0002B87CE0109960E942E0AF601A080B180A8
:1017000002811381861797070CF0ABC089859A85F3
:1017100097FF77C060E070E080E89FEB20E030E06A
:1017200040E853E40E947A2D0E94DE2C161617061C
:101730000CF06CC0D7011196BC92AE921195019538
:10174000110913961C930E93129783E016968C93AF
:10175000169784E017968C931797F6014081518174
:101760002281338119965C934E9318971B963C9374
:101770002E931A971E968C931E9781E01F968C933A
:10178000B701C4010E94E90AD30112962D913C9140
:101790001397A901480F591F2D913C91260F371F10
:1017A000F7013183208353834283B701685F7F4F02
:1017B000C4010E94E90AD30112962D913C9113971E
:1017C000A901480F591F2D913C91260F371FF70192
:1017D00031872087538742872C960FB6F894DEBF57
:1017E0000FBECDBFDF91CF911F910F91FF90EF9072
:1017F000DF90CF90BF90AF909F908F907F906F9031
:10180000089560E070E080E89FE388CFB194A194F0
:10181000B108D7011196BC92AE9213961C930E9309
:10182000129781E016968C93169742E017964C9388
:101830001797F60182819381919581959109208175
:10184000318131952195310919963C932E93189742
:101850001B969C938E931A971E964C931E9783E02B
:101860008DCF8B859C8597FF34C060E070E080E869
:101870009FEB20E030E040E853E40E947A2D0E9484
:10188000DE2C1616170654F5D7011196BC92AE92AF
:1018900013961C930E93129784E016968C931697CA
:1018A00021E017962C931797F6014281538180818E
:1018B000918191958195910919969C938E93189792
:1018C0001B965C934E931A971E962C931E9782E05C
:1018D00055CF60E070E080E89FE3CBCFB194A19456
:1018E000B108D7011196BC92AE92119501951109DC
:1018F00013961C930E93129782E016968C9316976C
:1019000023E017962C931797F60182819381919586
:10191000819591094081518119965C934E93189756
:101920001B969C938E931A971E962C931E9784E079
:1019300025CF803419F480E091E00895E82FF0E09D
:10194000EE0FFF1FE455FF4F859194910895EF929C
:10195000FF921F93CF93DF93EC01198218821B82B1
:101960001A821D821C821F821E822EEB38E2DB014E
:101970000E94722E672F782F892F992787FD9A95BD
:10198000672F770F770B162F1F73629566956695F5
:101990006370623041F16330A9F16130D1F080E4CD
:1019A000811B0E94990C7C01812F0E94990CF98265
:1019B000E88222273327281B390B3D832C839B8306
:1019C0008A83FF82EE82DF91CF911F91FF90EF908B
:1019D0000895812F0E94990CEE24FF24E81AF90A39
:1019E00080E4811BE2CF80E4811B0E94990CEE24ED
:1019F000FF24E81AF90A812F0E94990C919581958C
:101A00009109D5CF812F0E94990C7C0180E4811B24
:101A1000F3CF0895841795070CF4AC01CA0146175B
:101A200057070CF4CB010895CF92DF92EF92FF920B
:101A30000F931F93FB01A281B3819C010E946A2E28
:101A4000C72ED82EE92EFF24E7FCFA94A081B1819D
:101A50000E946A2E072F182F292F332727FD3A952A
:101A6000B801C6011F910F91FF90EF90DF90CF90CA
:101A70000895CF93DF93EC014A815B81FB012281C2
:101A80003381A881B9810190F081E02DBD016E1BE9
:101A90007F0BCA01821B930BDF91CF910895CF92E8
:101AA000DF92EF92FF92CF93DF93EC01FB0128814D
:101AB0003981A281B3810E946A2EC72ED82EE92EC9
:101AC000FF24E7FCFA942A813B81A081B1810E9426
:101AD0006A2E672F782F892F992787FD9A95C6013F
:101AE000861B970BDF91CF91FF90EF90DF90CF9007
:101AF0000895CF92DF92EF92FF92CF93DF93EC01A4
:101B0000FB0128813981A081B1810E946A2EC72EF4
:101B1000D82EE92EFF24E7FCFA942A813B81A2818A
:101B2000B3810E946A2EBB2797FDBA95A92F982FE3
:101B3000872F8C0D9D1DDF91CF91FF90EF90DF904F
:101B4000CF9008952F923F924F925F926F927F9223
:101B50008F929F92AF92BF92CF92DF92EF92FF92BD
:101B60000F931F93CF93DF9300D000D01F92CDB778
:101B7000DEB75C017B013A0149010D83CA010E9475
:101B8000790D6C01C818D908170188E0280E311C9E
:101B9000B101C3010E94790DAC014819590910E047
:101BA00000E01C141D044CF088E0F701D501019001
:101BB0000D928A95E1F701E010E0141615068CF0FD
:101BC000D801F3E0AA0FBB1FFA95E1F7AA0DBB1DE0
:101BD00088E0F701389601900D928A95E1F70F5F42
:101BE0001F4F26010D2C000C660877089601DA01BC
:101BF0000E946A2E672F782F892F992787FD9A9543
:101C000077FF46C0962D852D742D6627241B350B36
:101C1000032E000C440B550B0E947B2C2901B701AD
:101C2000C1010E94390D69837A838B839C83BE0135
:101C30006F5F7F4FC2010E94140DF80123E0EE0F89
:101C4000FF1F2A95E1F7EA0DFB1DD70112962D9192
:101C50003C911397A901480F591F2D913C91119761
:101C6000260F371F31832083538342831C141D04A6
:101C700044F514964D915D916D917C911797448335
:101C8000558366837783BD81B48316820F5F1F4FB0
:101C9000C8010F900F900F900F900F90DF91CF9190
:101CA0001F910F91FF90EF90DF90CF90BF90AF907A
:101CB0009F908F907F906F905F904F903F902F906C
:101CC00008951C964D915D916D917C911F97448371
:101CD000558366837783BD81B5831782D7CF0C94F4
:101CE000D52BDC01ED91FC91369720813181820F5B
:101CF000931F0C946F0EE0911907F0911A07028060
:101D0000F381E02DF0931A07E09319070190F08119
:101D1000E02D848195810E94D52BE0911907F091E7
:101D20001A0780819181009711F00E94D52BE091D4
:101D30001907F0911A071182108280911D07909166
:101D40001E07019790931E0780931D0708958091A9
:101D5000150790911607892B21F010921607109203
:101D6000150780911D0790911E07892B19F00E947D
:101D70007B0EF7CF0895CF93DF93EC010E947C0890
:101D8000CE01DF91CF910C94D52BDC01ED91FC912C
:101D9000369720813181820F931F0C94BB0ECF9315
:101DA000DF93EC010E943408CE01DF91CF910C94B7
:101DB000D52BDC01ED91FC91369720813181820F8A
:101DC000931F0C94CF0E0C94D52B0C94D52B0C9404
:101DD000D52BDC01ED91FC91369720813181820F6A
:101DE000931F0C94E70E0C94D52B0C94D52B0F93CA
:101DF0001F93CF93DF93EC018B01198218821B8212
:101E00001A8280E590E00E94392B20E5F801DC0180
:101E100001900D922A95E1F79D838C83DF91CF91FC
:101E20001F910F910895CF92DF92EF92FF920F933F
:101E30001F93CF93DF93E0901507F0901607E7010B
:101E40002196EC16FD0608F059C08C01209113076D
:101E5000309114072C173D0750F5C7010996281734
:101E6000390728F5C0901107D090120790931407F6
:101E700080931307880F991F0E94392B80931107B5
:101E800090931207FC01D60190E080E0E816F90675
:101E900059F0309729F02D913C911197318320838F
:101EA000019632961296F2CFC6010E94D52B8091F0
:101EB0001507909116079C01220F331FE09111071F
:101EC000F0911207E20FF31F8C179D0750F4309723
:101ED00029F0D8012D913C913183208301963296CF
:101EE000F3CFD0931607C0931507DF91CF911F91C1
:101EF0000F91FF90EF90DF90CF900895109216070A
:101F000010921507F2CF4F925F926F927F92AF922D
:101F1000BF92CF92DF92EF92FF920F931F93CF93D6
:101F2000DF93CDB7DEB72C970FB6F894DEBF0FBEA8
:101F3000CDBF0DE616E0882309F447C000911306D3
:101F40001091140680E095E09A8389839C838B83AB
:101F500040E450E0BE016F5F7F4F8DE696E00E9447
:101F6000410A83E390E0909384068093830680E0A7
:101F700096EF909378068093770680E090EC9093AC
:101F80006E0680936D0680E09AE0909370068093D1
:101F90006F0680E09CE3909374068093730680E064
:101FA00099E190937606809375068DE696E09C877E
:101FB0008B87CE010B960E94130F0F5F1F4F10935C
:101FC0001406009313060DE816E080E094E69A8369
:101FD000898380E094E19C838B834091CA01509176
:101FE000CB01BE016F5F7F4FC8010E94410A43E3EE
:101FF000642E712CF801778A668A1182108280E043
:1020000097EF938382831582148218870F83CE0102
:1020100007960E94130F6801F0E2CF0ED11CE090EA
:102020001306F0901406A12C55E0B52EBA82A982B1
:1020300080E09AE09C838B8340E051E0BE016F5FBB
:102040007F4FC6010E94410AF80177AA66AA80E084
:1020500098EF93A782A7B1A2A0A280E09CE393A3EC
:1020600082A3DA86C986CE0109960E94130F005C0E
:102070001F4FF2E0EF0EF11CF0921406E0921306EF
:10208000412C512C32015394A12C78E0B72EC12C55
:10209000EFE0DE2EF3E3EF2EF12CBA82A982DC8290
:1020A000CB8240E051E0BE016F5F7F4FC8010E94CC
:1020B000410AF801F78AE68A15821482A489B58953
:1020C00029E131E00E94722E672F782F892F9927FE
:1020D00087FD9A95DB01A30192010E94A52C672F31
:1020E000782F892F992787FD9A9575501182108234
:1020F000738362831E830D83CE0105960E94130FA6
:10210000005E1F4F809113069091140601969093E4
:10211000140680931306FFEF5F1A6F0A7F0A4114BB
:1021200083E058066104710409F0B7CF2C960FB60E
:10213000F894DEBF0FBECDBFDF91CF911F910F91FD
:10214000FF90EF90DF90CF90BF90AF907F906F9017
:102150005F904F9008950C94652C1F920F920FB6CC
:102160000F9211248F939F938091E1009091E10051
:10217000937F9093E10083FF0FC01092E90091E0FC
:102180009093EB001092EC0092E39093ED0010928C
:10219000120298E09093F00082FF22C093E09093A7
:1021A000E9009091F200992319F09AE39093E800E6
:1021B0009091F401992341F09091F4019150909302
:1021C000F401911101C05D9A90911102992341F09F
:1021D00090911102915090931102911101C0289A8F
:1021E00084FF18C08091E2008E7E81608093E200BF
:1021F0008091E1008F7E8093E1008091F5018E7ED9
:1022000080618093F5019F918F910F900FBE0F9089
:102210001F90189580FFF7CF8091E2008E7E80613D
:102220008093E2008091E1008E7E8093E1008091B6
:10223000F5018E7E8160E5CF1F920F920FB60F924F
:102240001124CF92DF92EF92FF920F931F932F935F
:102250003F934F935F936F937F938F939F93AF932E
:10226000BF93EF93FF93CF93DF93CDB7DEB76C9718
:10227000DEBFCDBF1092E9008091E80083FF25C04A
:1022800068E0CE0145960E94020582EF8093E80047
:102290008D8987FF39C09091E80090FFFCCF982F7F
:1022A000907609F034C19E894F89588D2F89F88C1A
:1022B000911131C0803861F58091F6018093F10071
:1022C0001092F1008EEF8093E8006C960FB6F894B0
:1022D000DEBF0FBECDBFDF91CF91FF91EF91BF91D8
:1022E000AF919F918F917F916F915F914F913F91AE
:1022F0002F911F910F91FF90EF90DF90CF900F9053
:102300000FBE0F901F9018959EEF9093E800C7CFD7
:102310001092F100D5CF913059F48111D3CF4130D3
:10232000510581F68091F6018D7F8093F601CACF29
:10233000933049F48111C6CF4130510519F680918F
:10234000F6018260F2CF953041F48091E80080FF81
:10235000FCCF20682093E300B5CF963009F0A9C0E8
:102360000B8D1C8D22E01092E9001092F201109268
:10237000F101F2122EC01092F0011092EF010E94B2
:10238000D1041F8299E09983FA8291E09E8390EABA
:1023900098879AEF99872091F1013091F201275F98
:1023A0003F4F3C832B838D831092E9001092F20102
:1023B0001092F1011093F0010093EF0149E050E019
:1023C000BE016F5F7F4F80E00E94AB040E94D1048A
:1023D00079CF1093F0010093EF010E946904DC01B2
:1023E00012960D911C910115110509F451C1D801E6
:1023F000ED91FC910480F581E02DBE016B5E7F4F75
:10240000C8010995009709F03EC1F80100851185C2
:10241000EACFF3E0FF120EC08F89882309F440C091
:10242000823061F440E867E080E996E00E9498130A
:10243000811148CF81E28093EB0047CF813029F4AE
:1024400040E86BE084E896E0F1CF833099F70E9492
:102450006904DC011296ED90FC908E010F5F1F4F16
:102460006801E114F10479F0D701ED91FC91068047
:10247000F781E02DB801C7010995080F111DF7017B
:10248000E084F184EECFD8011C92F6010190002087
:10249000E9F73197BF016C197D0940E0C601C6CF4D
:1024A0006EE676E0FB01449150E080E80E94AB04C8
:1024B00009CF973009F4BECF983021F481E08093A2
:1024C000F10000CF993009F0FDCE837009F0B2CF52
:1024D000E4ECF1E081E031E096E32191222371F018
:1024E0008093E9003093EB00DF0111972C9120934A
:1024F000EC009093ED008F5F873079F78EE7809343
:10250000EA001092EA008F8980931202DBCE8B8D55
:102510009C8D1092E9001092F2011092F1019093BB
:10252000F0018093EF01898D811192C08E899D8980
:10253000913A49F4813209F07DCF47E050E064E000
:1025400071E080E0B3CF913209F074CF833269F447
:102550008F89988DB0E0A0E08093000190930101F5
:10256000A0930201B0930301ADCE803269F4809153
:10257000E80082FFFCCF67E084E091E00E94020562
:102580008BEF8093E8009ECE823209F09BCE8F893C
:1025900080930B01EEEFFFE7859194918B3F9C4D6B
:1025A00051F1E0E0F8E08091040190910501A091E3
:1025B0000601B0910701803B9440A105B105F1F4FB
:1025C00080910B0180FD1AC0EE3F8AE0F80789F583
:1025D00087E797E791838083809160008093F30180
:1025E00088E19BE00FB6F894A895809360000FBE39
:1025F0009093600067CEEEEFFAE0D5CF80819181B5
:102600008737974709F05ECEA89580916000886172
:10261000809360008091F30180936000EE3F2AE098
:10262000F20789F08091FE0A9091FF0A91838083DE
:1026300049CE808191818737980751F29093FF0AA4
:102640008093FE0AC5CF1092FF0A1092FE0A3ACE7E
:102650000E946904DC0112960D911C91011511056F
:1026600009F4E8CED801ED91FC910190F081E02DC4
:10267000BE016B5E7F4FC8010995811123CEF80121
:1026800000851185EBCF181619060CF41BCED2CE9F
:10269000F1E0FF12BECE62E776E004CF1F920F9208
:1026A0000FB60F9211242F933F938F939F93AF9365
:1026B000BF938091F7019091F801A091F901B09139
:1026C000FA013091EA0123E0230F2D3758F50196E6
:1026D000A11DB11D2093EA018093F7019093F801A9
:1026E000A093F901B093FA018091EB019091EC0174
:1026F000A091ED01B091EE010196A11DB11D809355
:10270000EB019093EC01A093ED01B093EE01BF912A
:10271000AF919F918F913F912F910F900FBE0F908E
:102720001F90189526E8230F0296A11DB11DD2CF48
:10273000EF92FF920F931F93CF93DF93F82E192FF1
:10274000E62E042F81E0860F880F0E947D0483E02F
:102750000E947D04CF2DD12FEC0EFD2EF11CCE1545
:10276000DF05B9F007FF13C0FE0184910E947D04CC
:10277000182F80E00E947D04812321968111EFCFE4
:10278000DF91CF911F910F91FF90EF900895888175
:10279000EDCF81E0F5CFCF93DF93EB018881998175
:1027A000A2E5B7E011969C938E932A813B81069710
:1027B000EC01E881F981EE5AF84F318320831296BB
:1027C0001D921D921D921C92159781E290E09483B8
:1027D000838388E597E0948B838B1582158ADF913C
:1027E000CF910895CF93DF93C2E5D7E081E290E0E7
:1027F0009C8F8B8F1D8E1E8E1F8E86E090E0A0E03A
:10280000B0E088A399A3AAA3BBA31CA21DA21EA2E9
:102810001FA28FE391E0998F888F80E288A71AA684
:1028200019A61DA688E597E09CA78BA7AC016DE8CB
:1028300071E0CE010E94CB1389E991E099838883EE
:1028400083EA91E0998F888F1A8619861C861B86E9
:102850001E861D86188A1F861A8A198A1C8A1B8A58
:1028600087E491E09F838E8389E196E09F8B8E8B36
:1028700088E08D8BDF91CF910895DB018D919C9144
:102880001197909329078093280712962D913C91D8
:102890000697DC01ED91FC91E85DF84F31832083D0
:1028A00081E290E0948383838AE297E0948B838B28
:1028B0001582158A0895CF93DF93C8E2D7E081E2AD
:1028C00090E0988F8F8B198E1A8E1B8E86E090E089
:1028D000A0E0B0E08C8F9D8FAE8FBF8F18A219A2A1
:1028E0001AA21BA28FE391E09D8B8C8B80E28CA3BC
:1028F0001EA21DA219A68AE297E098A78FA3AC0199
:1029000069EA71E0CE010E943D1485EB91E0998364
:1029100088838FEB91E09D8B8C8B1E821D821886A5
:102920001F821A8619861C861B861E861D86188A9B
:102930001F8687E491E09B838A8389E196E09B8BE5
:102940008A8B80E1898BDF91CF910895CF92DF92BE
:10295000EF92FF9210921C0610921B0688EE93E0F5
:10296000A0E0B0E080931D0690931E06A0931F0682
:10297000B093200680ED91E090931A06809319069B
:102980008FEF9FEF909326068093250669E176E00E
:1029900088E297E00E945B1469E176E082E597E0C7
:1029A0000E94F213109218061092170689E196E021
:1029B000909316068093150667E074E082EE93E02C
:1029C0000E94D22A9093180680931706109210073F
:1029D00010920F0782EE91E090930E0780930D07FF
:1029E000EDE6F6E043E350E020E031E08DEF9FE7D5
:1029F000118210821382128215821482178216822B
:102A000011861086138612861586148617861686FA
:102A1000118A108A578B468B338B228B358B248BF4
:102A2000918F808F138E128E958F848F178E168EB6
:102A3000B09667E0ED30F607D9F610926A0610926C
:102A4000690684E396EF90936C0680936B06C090C2
:102A50006906D0906A06E0906B06F0906C0688E0FC
:102A600090E090931407809313071092160710922A
:102A7000150780E190E00E94392B90931207809314
:102A8000110710921E0710921D0786E090E00E9429
:102A9000392BFC011182108213821282158214825A
:102AA00090931A078093190790931C0780931B0734
:102AB00087ED93E09093210780932007C09222072F
:102AC000D0922307E0922407F092250782E090E05D
:102AD0009093270780932607FF90EF90DF90CF9089
:102AE0000895CF93DF93CDB7DEB7CE56D1400FB662
:102AF000F894DEBF0FBECDBF789484B5826084BDEC
:102B000084B5816084BD85B5826085BD85B58160F1
:102B100085BD80916E00816080936E00109281006F
:102B2000809181008260809381008091810081602A
:102B300080938100809180008160809380008091EB
:102B400091008260809391008091910081608093D8
:102B50009100809190008160809390008091C100ED
:102B600084608093C1008091C10082608093C10025
:102B70008091C10081608093C1008091C300816019
:102B80008093C3008091C00082608093C0008091D8
:102B9000C20081608093C20080917A00846080933B
:102BA0007A0080917A00826080937A0080917A0026
:102BB000816080937A0080917A00806880937A00A7
:102BC000109212021092F6011092F5018091D70036
:102BD00081608093D70080EA8093D80089B58061B6
:102BE00089BD89B5826089BD09B400FEFDCF61E071
:102BF00070E080E090E00E94E9058091D8008F7C31
:102C000080618093D8008091E000807F8093E00015
:102C10008091E1008E7E8093E1008DE08093E20060
:102C2000559A209A81EC80937C0085B1806F85B99C
:102C300084B1877E84B984B1876E84B95E9A5F98C7
:102C40008AB1806D8AB9769A6E9881B3806F81BBA4
:102C5000899880B38D7080BB80E58CBD81E08DBD8F
:102C600085E090E00E9497085F9A85E090E00E94DE
:102C700097085E985C98E8E4F7E085E597E0249192
:102C80002EBD00000DB407FEFDCF31968E179F07B5
:102C9000B1F75C9A81E8809364008091650081605F
:102CA000809365000E94AF080E949C0887FF15C0B2
:102CB0005C9885EA8EBD00000DB407FEFDCF5C9ADE
:102CC0002E982F982D9880916400806280936400E4
:102CD00081E083BF889513BEFCCF0E949C0882FFD1
:102CE00048C02D980E949C0884788438E1F40E94A2
:102CF000950888EC90E00E9497082F9882E090E079
:102D00000E94652C8F3F29F06FEF82E090E00E94D7
:102D10006D2C84EF91E00E9497082F9A0E949C08E6
:102D200084788438D9F30E949C0884718431E1F45A
:102D30000E94950888EC90E00E9497082E9882E007
:102D400090E00E94652C882329F060E082E090E00A
:102D50000E946D2C84EF91E00E9497082E9A0E94A9
:102D60009C0884718431D9F388EC90E00E94970824
:102D7000B4CF0E94950882E090E00E94AB108823B7
:102D800009F468C03E9A3F9A81E090E00E94AB103F
:102D9000282F2470922E81FF0FC021112E9801EF51
:102DA0001FEFE8E06E2E712C0E949C0886FF55C034
:102DB0002E9A2F9A0E94950882E390E00E9497082D
:102DC0000E949C088111F8CF0E94A70E1092140651
:102DD0001092130680E00E94830F25E031E02C0F53
:102DE0003D1F2C5F3F4FC559DE4F39832883CB569B
:102DF000D1404DEE50E04C0F5D1F4C5F5F4FC3590B
:102E0000DE4F59834883CD56D1406DED70E06C0F95
:102E10007D1F6E5F7F4FC759DE4F79836883C95628
:102E2000D1402FB7F8948091F7019091F801A091CB
:102E3000F901B091FA012FBF1091FD01112309F49E
:102E4000CBC01092FD0180E090E0892B51F30E94ED
:102E50000000DBCF3E983F9897CF992029F00430AF
:102E6000110511F42E9A2F9881E00E941F049801F9
:102E700017FF04C022273327201B310B277033276D
:102E8000C80117FD079673E0959587957A95E1F748
:102E900017FF05C00197A301421B530B9A01AC0118
:102EA0005695542F4427579547954D5E5D4FB0E09A
:102EB000A0E02301421A530A8E3F6FEF960709F4F0
:102EC0003BC06A0174E9C70ED11C7A0170E060E072
:102ED000FD01E856F94F5F018F3F980779F0F50142
:102EE000E60FF71FE491F0E01F01022E01C0220C53
:102EF0000A94EAF7F70184882828248A21153105E5
:102F000081F0F501E60FF71FE491F0E01F01042CBA
:102F100002C0359427940A94E2F7F60180802828AD
:102F200020826F5F7F4FFFEFCF1ADF0AEFEFEE1ABD
:102F3000FE0A6835710581F60196A85ABF4F4058C0
:102F40005F4FA03BB10509F0B7CF0E94AF088FE0FB
:102F500090E00E9497080F5F1F4F0931110509F09B
:102F600023CF992011F02F9A2D9880E991E00E94AB
:102F700097080E94950881E090E00E94AB1080FFC6
:102F80001BCF8AE090E00E94AB109FEF980F9E3F0E
:102F900008F012CF22E330E0309300022093FF01CB
:102FA00028E330E030930202209301020BE010E0AE
:102FB000682F8DE097E00E945409C8010E94AB1071
:102FC0000F5F1F4F0131110599F70E94AF0888EE7E
:102FD00093E00E949708F0CE2091FE01782F721B9B
:102FE000703140F47F3009F42ECF81E083BF8895A3
:102FF00013BE29CF21E02093FD018093FE01809133
:10300000FB019091FC0101969093FC018093FB01E0
:1030100080910402809303020E949C088093040222
:10302000E3E1F2E011111FEF0024119311931193CA
:1030300011930394D1F710920202109201021092A0
:1030400000021092FF0180910C01882311F40C946E
:103050009027CB5BDE4F19821882C554D140CD5BDF
:10306000DE4F19821882C354D14080911507909188
:103070001607CD5BDE4FA881B981C354D140A81794
:10308000B90714F00C94D421E0911107F0911207C4
:10309000CB5BDE4F28813981C554D140E20FF31F4D
:1030A00040815181C15CDE4F59834883CF53D14069
:1030B0001196CD5BDE4FB983A883C354D140C75B63
:1030C000DE4F39832883C954D140C95BDE4FB983B1
:1030D000A883C754D1408091150790911607C95B0A
:1030E000DE4F68817981C754D1406817790774F041
:1030F000CB5BDE4F88819981C554D1400296CB5B72
:10310000DE4F99838883C554D140AFCFC75BDE4F74
:10311000A881B981C954D1401296C75BDE4FB983EB
:10312000A883C954D140E0911107F0911207EA0F2A
:10313000FB1F20813181CF5BDE4F39832883C1544F
:10314000D140C15CDE4FA881B981CF53D1405A969E
:103150008D919C91892BA1F4F901828D938D892BFE
:1031600079F4C95BDE4F28813981C754D1402F5F84
:103170003F4FC95BDE4F39832883C754D140ABCF63
:1031800063961FAE1EAE639765961FAE1EAE659723
:1031900067961FAE1EAE679769961FAE1EAE699703
:1031A0006B961FAE1EAE6B976D961FAE1EAE6D97E3
:1031B0006F961FAE1EAE6F97A1961FAE1EAEA19763
:1031C000A3961FAE1EAEA397A5961FAE1EAEA597E3
:1031D000A7961FAE1EAEA797A9961FAE1EAEA997C3
:1031E000AB961FAE1EAEAB97AD961FAE1EAEAD97A3
:1031F000AF961FAE1EAEAF97E5961FAE1EAEE5971B
:10320000E7961FAE1EAEE797E9961FAE1EAEE99792
:10321000EB961FAE1EAEEB97ED961FAE1EAEED9772
:10322000EF961FAE1EAEEF97C158DF4F198218827E
:10323000CF57D040CF57DF4F19821882C158D040A6
:10324000CD57DF4F19821882C358D040CB57DF4F7C
:1032500019821882C558D040C957DF4F1982188289
:10326000C758D040C757DF4F19821882C958D0407D
:10327000C557DF4F19821882CB58D040C357DF4F54
:1032800019821882CD58D040C157DF4F1982188259
:10329000CF58D040C556DF4F19821882CB59D04045
:1032A000C15CDE4F48815981CF53D140CF5BDE4FA7
:1032B00068817981C154D1404617570708F068C228
:1032C000C956DF4F59834883C759D040C756DF4F8F
:1032D00079836883C959D040C756DF4F0881198167
:1032E000C959D040C956DF4FE880F980C759D0404E
:1032F000B7016E5E7F4F80E890E00E94140DC75CBE
:10330000DE4F688379838A839B83C953D140B80198
:103310006E5E7F4F80E890E00E94140DCB5CDE4F24
:10332000688379838A839B83C553D140F701808169
:103330009181A281B381CF5CDE4F88839983AA8378
:10334000BB83C153D140F80180819181A281B381B7
:10335000C35DDE4F88839983AA83BB83CD52D1405E
:10336000D70114966D917C91CE01835F9E4F0E9490
:10337000A70CF80164817581CE018B5F9E4F0E947E
:10338000A70CC15FDE4F28813981CF50D140CD5E7F
:10339000DE4F88819981C351D140CF5EDE4F488195
:1033A0005981C151D140C35FDE4F68817981CD50D1
:1033B000D140C350DF4F79836883CD5FD040C15087
:1033C000DF4F59834883CF5FD040CF5FDE4F3983D3
:1033D0002883C150D140CD5FDE4F99838883C3508D
:1033E000D140C95FDE4F28813981C750D140C55FC8
:1033F000DE4F88819981CB50D140C75FDE4F488135
:103400005981C950D140CB5FDE4F68817981C55069
:10341000D140CB50DF4F79836883C55FD040C9501E
:10342000DF4F59834883C75FD040C750DF4F398390
:103430002883C95FD040C550DF4F99838883CB5F15
:10344000D040BE016F5C7E4FCE01835D9E4F0E94D7
:10345000390DC75DDE4F688379838A839B83C952A8
:10346000D140BE01675D7E4FCE0183509F4F0E94C9
:10347000E90ACB5DDE4F688379838A839B83C552DB
:10348000D140BE01675D7E4FCE018B509F4F0E94A1
:10349000E90ACF5DDE4F688379838A839B83C152BB
:1034A000D140C559DE4F68817981CB56D140CE01DC
:1034B00083509F4F0E94E90A6B017C01BE016B5F44
:1034C0007E4FCE0183509F4F0E94E90A69837A8321
:1034D0008B839C83CD82DE82EF82F88688E0FE01BA
:1034E0003196DE01A354BF4F01900D928A95E1F70A
:1034F00088E0FE01E354FF4FDE01AB53BF4F019064
:103500000D928A95E1F788E0FE01EB53FF4FDE0153
:10351000A351BF4F01900D928A95E1F7C359DE4F39
:1035200088819981CD56D1400E942E0A6B017C0181
:10353000CE0183519F4F0E942E0A69837A838B8329
:103540009C83CD82DE82EF82F88688E0FE01319690
:10355000DE01A353BF4F01900D928A95E1F788E0F9
:10356000FE01E353FF4FDE01AB52BF4F01900D92BE
:103570008A95E1F788E0FE01EB52FF4FDE01AB5187
:10358000BF4F01900D928A95E1F7C951DF4F288115
:103590003981C75ED040C551DF4F88819981CB5EAC
:1035A000D040C751DF4F48815981C95ED040CB51CF
:1035B000DF4F68817981C55ED040C352DF4F798388
:1035C0006883CD5DD040C152DF4F59834883CF5DC2
:1035D000D040CF51DF4F39832883C15ED040CD51D9
:1035E000DF4F99838883C35ED040BE016B5C7E4F02
:1035F000CE018B519F4F0E94E90A69837A838B83A6
:103600009C83CE018B5D9E4F0E942E0AC355DF4FD7
:10361000688379838A839B83CD5AD040BE01675CDF
:103620007E4FCE0183559F4F0E94390DC356DF4F09
:10363000688379838A839B83CD59D040BE016F5FB5
:103640007F4FCE0183569F4F0E94390D4B018C0155
:10365000161617060CF4C8C4181619060CF4C4C4C0
:10366000BE01675C7E4FCE0183529F4F0E94E90AE4
:10367000C356DF4F688379838A839B83CD59D040BB
:10368000CE018F5D9E4F0E942E0AC355DF4F688387
:1036900079838A839B83CD5AD040BE0163567F4F86
:1036A000CE0183559F4F0E94390D69837A838B83A6
:1036B0009C83BE016B5C7E4FCE0101960E94390D4A
:1036C000AB01FC01161617060CF48EC41816190669
:1036D0000CF48AC4C15FDE4FC880D980CF50D1407E
:1036E000C35FDE4FE880F980CD50D140CB5DDE4F27
:1036F00088819981C552D1401816190634F0D194A9
:10370000C194D108F194E194F108C55CDE4F488082
:103710005980CB53D140052C000C66087708440C27
:10372000551C661C771C452C562C672C772467FC8F
:103730007A94D40123EF30E00E94722E672F782F05
:10374000892F992787FD9A95640D751D601771075C
:10375000C4F5CD5EDE4FC880D980C351D140CF5E65
:10376000DE4FE880F980C151D140C95DDE4F8881CC
:103770009981C752D1401816190634F0D194C194DA
:10378000D108F194E194F10866246394712C1CC073
:10379000CF5BDE4F88819981C154D140C956DF4F3C
:1037A00099838883C759D040C15CDE4FA881B98115
:1037B000CF53D140C756DF4FB983A883C959D040F2
:1037C0008BCD8401712C612CCB5CDE4F888099807D
:1037D000C553D140092C000CAA08BB08880C991CC1
:1037E000AA1CBB1C892C9A2CAB2CBB24A7FCBA941A
:1037F00023EF30E0D8010E94722E672F782F892F97
:10380000992787FD9A95680D791D64177507FCF453
:10381000C95FDE4FC880D980C750D140CB5FDE4F33
:10382000E880F980C550D140CF5DDE4F8881998115
:10383000C152D1401816190634F0D194C194D10860
:10384000F194E194F10862E0662E712C01C0A801A8
:10385000C95CDE4F88809980C753D140092C000C89
:10386000AA08BB08880C991CAA1CBB1C892C9A2C82
:10387000AB2CBB24A7FCBA9423EF30E0DA010E9402
:10388000722E672F782F892F992787FD9A95860E9C
:10389000971E8E169F06F4F4C55FDE4FC880D98050
:1038A000CB50D140C75FDE4FE880F980C950D1408E
:1038B000CD5DDE4F88819981C352D140181619061B
:1038C00034F0D194C194D108F194E194F10883E0EB
:1038D000682E712CC75EDE4F19821882C951D14003
:1038E000C55EDE4F19821882CB51D140C355DF4FE0
:1038F00019821882CD5AD040C155DF4F19821882E3
:10390000CF5AD040CF54DF4F19821882C15BD040CC
:10391000CB54DF4F19821882C55BD040C954DF4FAA
:1039200019821882C75BD040C754DF4F19821882B2
:10393000C95BD040F2E06F16710409F4ADC223E018
:103940006216710409F4FCC2C35EDE4FF982E8829C
:10395000CD51D140C15EDE4FD982C882CF51D14016
:10396000BE01635E7E4FCE018F5C9E4F31E06316D9
:10397000710409F450C20E94790DC75CDE4F2880A3
:103980003980C953D140280E391ECF5EDE4F888161
:103990009981AA81BB81C151D140C75EDE4F888326
:1039A0009983AA83BB83C951D140BE01675E7E4F14
:1039B000CE018F5C9E4F0E94790DC55CDE4FA880C2
:1039C000B980CB53D1402501481A590AA80EB91E17
:1039D0008E01035E1E4F9E012B5F3E4FAE01435D85
:1039E0005E4FBE016B5C7E4FCE0183559F4F0E94A0
:1039F000380B11E003E0C356DF4F19821882CD590E
:103A0000D040C156DF4F19821882CF59D040CF55D0
:103A1000DF4F19821882C15AD040CB55DF4F19822F
:103A20001882C55AD040C955DF4F19821882C75A2B
:103A3000D040C755DF4F19821882C95AD0401A8228
:103A400019821C821B821E821D821A8619861C8680
:103A50001B861E861D86C55EDE4F88819981CB51EF
:103A6000D1409195819591094E014BEE841A4EEF0C
:103A7000940AC75EDE4F28813981C951D140319502
:103A800021953109D40111963C932E9313969C9362
:103A90008E9312979201A401BE0163557F4FCE0110
:103AA00083569F4F0E94A20D02970CF49DC2012FD6
:103AB0009501AE01475E5E4FBE0163567F4FCE015A
:103AC00001960E94A20D02970CF48EC2FE0131965F
:103AD0005F019E012F5E3F4FC35CDE4F3983288319
:103AE000CD53D140512C412C32E0631A7108B501FD
:103AF000CE01835E9E4F0E94790D8219930918169C
:103B000019060CF455C042E2449D8001459D100DFC
:103B1000112461E570E06C0F7D1F060F171FD8019F
:103B200051969C938E9350971596FC92EE92149713
:103B30001796DC92CE92169764537F4F0E94140D15
:103B4000F4016083718382839383B401C5010E9471
:103B5000390DD8016D937D938D939C931397F50147
:103B600084819581A681B781F801868F978FA0A364
:103B7000B1A3F2E06F167104C0F4D8015E968C9187
:103B80005E9790969C9190975E969C935E97909688
:103B90008C9390975F968C915F9791969C9191975B
:103BA0005F969C935F9791968C93BFEF4B1A5B0A3D
:103BB000E8E0AE0EB11CC35CDE4F28813981CD53E5
:103BC000D1402A153B0509F092CFCB56DF4F5982E1
:103BD0004882C559D040C956DF4FA881B981C7591D
:103BE000D040C756DF4FE881F981C959D040569679
:103BF0002D913C91A689B7890E946A2E672F782F54
:103C0000892F992787FD9A95072E000C880B990B11
:103C10000E94162D20E030E040E85BE30E947A2D00
:103C20000E94ED2D20E030E040E853E40E947A2D20
:103C30000E94DE2CC556DF4F79836883CB59D04074
:103C4000C15CDE4F48815981CF53D140CF5BDE4FFD
:103C500068817981C154D1404617570708F0C7C120
:103C6000C352DF4F59834883CD5DD040C152DF4FEF
:103C700079836883CF5DD0408E0103561F4FBE010C
:103C800063527F4F4114510409F4EBC2C8010E94F2
:103C9000D109D8011196ED91FC9180911B0790916B
:103CA0001C078E179F07A1F10480F581E02D2DB729
:103CB0003EB7205531090FB6F8943EBF0FBE2DBF59
:103CC000ADB7BEB7119680E501900D928A95E1F7E8
:103CD000E0912007F0912107099569837A838B830E
:103CE0009C830FB6F894DEBF0FBECDBFBE016F5FE1
:103CF0007F4FCE0183529F4F0E94B709E0911B076F
:103D0000F0911C07811104C0D8011196ED91FC912E
:103D100080911B0790911C078E179F0709F022C204
:103D2000C352DF4F88819981AA81BB81CD5DD0408C
:103D300089839A83AB83BC838CE4FE01EF5AFF4FE7
:103D4000DE01159601900D928A95E1F7EDB7FEB769
:103D5000E055F1090FB6F894FEBF0FBEEDBFADB749
:103D6000BEB7119680E5FE01319601900D928A95BD
:103D7000E1F7E0912007F09121070995C356DF4F45
:103D8000688379838A839B83CD59D0400FB6F8949A
:103D9000DEBF0FBECDBFBE0163567F4FCE018B513C
:103DA0009F4F0E94D109CA51DF4FE881F981C65E59
:103DB000D04080911B0790911C078E179F0709F038
:103DC00055C180911D0790911E07892B09F028C1CC
:103DD00086E090E00E94392B8C01BE016F5F7F4F1F
:103DE0000E94F70E10931A0700931907E0911B0722
:103DF000F0911C0711830083D80111961C921E922A
:103E00001396FC93EE93129781E090E090931E0737
:103E100080931D07A6C90E94790DC55CDE4F2880DE
:103E20003980CB53D140280E391EC35FDE4F8881C5
:103E30009981AA81BB81CD50D140C75EDE4F888376
:103E40009983AA83BB83C951D140BE01675E7E4F6F
:103E5000CE018F5C9E4F0E94790DC75CDE4FA8801B
:103E6000B980C953D1402501481A590AA80EB91E74
:103E70008E01035E1E4F9E012B5F3E4FAE01435DE0
:103E80005E4FBE016B5C7E4FCE0183559F4F0E94FB
:103E9000380B14E002E0AFCD882799278E199F09CF
:103EA000C35EDE4F99838883CD51D14088279927FF
:103EB0008C199D09C15EDE4F99838883CF51D14013
:103EC000BE01635E7E4FCE01835D9E4F0E94790DE1
:103ED000CB5CDE4F28803980C553D140280E391E77
:103EE000C75FDE4F88819981AA81BB81C950D140CB
:103EF000C75EDE4F88839983AA83BB83C951D140B3
:103F0000BE01675E7E4FCE01835D9E4F0E94790D9C
:103F1000C95CDE4FA880B980C753D1402501481A3B
:103F2000590AA80EB91E8E01035E1E4F9E01235F23
:103F30003E4FAE014F5C5E4FBE01675C7E4F54CD7D
:103F4000882799278E199F09C35EDE4F998388833E
:103F5000CD51D140882799278C199D09C15EDE4F2C
:103F600099838883CF51D140BE01635E7E4FCE01DD
:103F7000835D9E4F0E94790DC95CDE4F2880398099
:103F8000C753D140280E391ECB5FDE4F88819981FF
:103F9000AA81BB81C550D140C75EDE4F888399831B
:103FA000AA83BB83C951D140BE01675E7E4FCE015B
:103FB000835D9E4F0E94790DCB5CDE4FA880B98057
:103FC000C553D1402501481A590AA80EB91E8E01C1
:103FD000035E1E4F9E01235F3E4FAE014F5C5E4F5E
:103FE000BE01675C7E4F50CF512C412CEECDCF5B94
:103FF000DE4F88819981C154D140C352DF4F9983EC
:104000008883CD5DD040C15CDE4FA881B981CF539C
:10401000D140C152DF4FB983A883CF5DD0402CCEB1
:1040200086E090E00E94392B8C01BE016F5F7F4FCC
:104030000E94F70EE0911B07F0911C07808191818F
:10404000D80111969C938E931396FC93EE9312973E
:10405000A081B18113961C930E9312971183008354
:1040600080911D0790911E070196D0CE0480F581A6
:10407000E02D2DB73EB7205531090FB6F8943EBF5D
:104080000FBE2DBFADB7BEB7119680E501900D9262
:104090008A95E1F7E0912007F09121070995C35532
:1040A000DF4F688379838A839B83CD5AD0400FB6D4
:1040B000F894DEBF0FBECDBF6DB77EB760557109F6
:1040C0000FB6F8947EBF0FBE6DBFADB7BEB71196E9
:1040D00080E5FE01319601900D928A95E1F7E0911D
:1040E0002007F09121070995C356DF4F6883798334
:1040F0008A839B83CD59D0400FB6F894DEBF0FBEA4
:10410000CDBFBE0163557F4FCE0183569F4F0E94A6
:10411000B709882309F425C8CA51DF4FE880F98020
:10412000C65ED04086E090E00E94392B8C01BE0133
:104130006F5F7F4F0E94F70ED7018D919C91119771
:10414000F80191838083F382E282892B31F410930A
:104150001A0700931907F70181CFED91FC911383A2
:104160000283F9CF848095801401F4E02F0E311C76
:104170001A8219821C821B821E821D8218861F824F
:104180001A8619861C861B861E861D86188A1F861F
:104190001A8A198A1C8A1B8A1E8A1D8A188E1F8AEF
:1041A0001A8E198E1C8E1B8E1E8E1D8E1CA21BA29B
:1041B0001EA21DA218A61FA21AA619A61CA61BA6FF
:1041C0001EA61DA618AA1FA61AAA19AA1CAA1BAACF
:1041D0001EAA1DAA18AE1FAA1AAE19AE1CAE1BAE9F
:1041E0001EAE1DAE21961FAE1EAE21979E012F5A08
:1041F0003F4FAE014F5F5F4F5A01CA0150E040E0B0
:10420000340168E4660E711CD3010D90BC91A02DA1
:10421000CF5BDE4FB983A883C154D140B101F0E038
:10422000E0E0CF5BDE4FA881B981C154D140EA17ED
:10423000FB0714F00C94A32A8B016E5D7F4F7B016A
:10424000B4E0EB1AF108D9015E96CD90DC90D7016D
:10425000ED90FC90CE14DF0411F40C94632A319697
:10426000E0CFCE0183559F4F0E94D109BE0163521A
:104270007F4FC8010E94D109D8011196ED91FC91A0
:1042800080911B0790911C078E179F07C1F1048036
:10429000F581E02D2DB73EB7205531090FB6F894C2
:1042A0003EBF0FBE2DBFADB7BEB7119680E50190E2
:1042B0000D928A95E1F7E0912007F0912107099589
:1042C00069837A838B839C830FB6F894DEBF0FBE1D
:1042D000CDBFBE016F5F7F4FCE0183529F4F0E94C3
:1042E000B70981110CC0D8011196ED91FC9112977C
:1042F0008281938112969C938E931197BDCFC25564
:10430000DF4F08811981CE5AD040C256DF4F8881D5
:104310009981CE59D0408017910711F40C94B118AF
:10432000E0901B07F0901C070E151F0529F1F801FE
:10433000E280F3808091190790911A0708171907F6
:1043400011F5D7011D921C92F0921A07E0921907FD
:10435000F801848195810E94D52B0115110519F072
:10436000C8010E94D52B80911D0790911E070197CF
:1043700090931E0780931D07C255DF4FF982E88294
:10438000CE5AD040BCCF0190F081E02DD701ED9303
:10439000FC93D8018D919C91DC011396FC92EE92D6
:1043A0001297E280F380D4CFF12CE12C8091150795
:1043B00090911607E816F9060CF05DC0E091110720
:1043C000F0911207C701880F991FE80FF91F0081AC
:1043D0001181D8015A968D919C91009709F447C09C
:1043E000B801645F7F4F0E94140D20912407309123
:1043F0002507A901480F591F209122073091230753
:10440000260F371F3A8329835C834B83BE016F5F7E
:104410007F4F84E090E00E94140DF80126813781DF
:10442000260F371F3783268320853185820F931F00
:1044300091878087268D378D032E000C440B550BFA
:10444000A6E05595479537952795AA95D1F7A08968
:10445000B1890E94A52CBB2797FDBA95A92F982F4B
:10446000872F22853385820F931F93878287FFEFE3
:10447000EF1AFF0A9BCF2091190730911A07C15CF0
:10448000DE4F39832883CF53D14080911B07909111
:104490001C07C15CDE4F48815981CF53D14084173E
:1044A000950709F415C2DA011496ED90FC90870186
:1044B0000C5F1F4FCF5BDE4F19821882C154D14071
:1044C000F701E85BFF4FCB5BDE4FF983E883C55410
:1044D000D1403701FAE46F0E711C2CE4E20EF11C9E
:1044E000CB5BDE4FA881B981C554D1408D919C91A1
:1044F000CF5BDE4FE881F981C154D140E817F9075D
:104500000CF0D5C1D3016D917C91C8010E94390D89
:10451000C355DF4F688379838A839B83CD5AD0400C
:10452000F70160817181C8010E94390DC356DF4FC8
:10453000688379838A839B83CD59D04098012C5F0F
:104540003F4FCD5BDE4F39832883C354D140B9013F
:10455000CE0183559F4F0E94790D5C01CD5BDE4FEC
:1045600068817981C354D140CE0183569F4F0E9408
:10457000790D4C01F301A081B181F7018081918116
:104580005A96CD90DC90DC015A962D913C91C20E4A
:10459000D31EBE0163567F4FCB010E94790DAC0143
:1045A0009401D4010E946A2E672F782F892F9927B2
:1045B00087FD9A959A01261B370BD701ED91FC9147
:1045C000A68DB78D0E946A2E272E382E492E55248F
:1045D00047FC5A94BE0163557F4FCB010E94790D71
:1045E000AC019501D5010E946A2E672F782F892F83
:1045F000992787FD9A959A01261B370BD301ED91D8
:10460000FC91A68DB78D0E946A2E672F782F892F77
:10461000992787FD9A95260E371E2C0C3D1C91017B
:10462000330C440B550B60E070E081E090E00E9499
:104630007B2CF801318F208F24813581A0E0BFEFE2
:104640000E946A2E672F782F892F992787FD9A95C8
:104650002681378163963FAF2EAF639765967FAF14
:104660006EAF6597BE016F5A7F4FCE0183559F4F46
:104670000E94790D5C01BE016F5A7F4FCE018356B7
:104680009F4F0E94790D4C01F301A081B181F70188
:10469000808191815A96CD90DC90DC015A962D91C3
:1046A0003C91C20ED31EBE0163567F4FCB010E94C8
:1046B000790DAC019401D4010E946A2E672F782FE6
:1046C000892F992787FD9A959A01261B370BD701C9
:1046D000ED91FC91A68DB78D0E946A2E272E382E63
:1046E000492E552447FC5A94BE0163557F4FCB0198
:1046F0000E94790DAC019501D5010E946A2E672FA9
:10470000782F892F992787FD9A959A01261B370BB9
:10471000D301ED91FC91A68DB78D0E946A2E672F73
:10472000782F892F992787FD9A95260E371E2C0CF6
:104730003D1C9101330C440B550B60E070E081E0AF
:1047400090E00E947B2CF801338F228F20893189E1
:104750002E5F3F4F1216130614F430E020E0A0E461
:10476000B3EF0E946A2E672F782F892F992787FD34
:104770009A95D8015D967C936E935C97BE016F5AB3
:104780007F4F54968D919C910E94140D4B015C01BA
:10479000CD5BDE4F68817981C354D140F8018289B5
:1047A00093890E94140D9C012A0D3B1D680D791DF3
:1047B0007A8369833C832B83D301ED91FC91BE0105
:1047C0006F5F7F4F828D938D0E94140DD301ED9109
:1047D000FC9126813781261B370B37832683208562
:1047E0003185A901481B590B51874087BE016F5F76
:1047F0007F4FCE0183559F4F0E944F0DD301ED9106
:10480000FC91A68DB78D9C010E946A2E472F582FD0
:10481000692F772767FD7A9582859385841B950B91
:1048200093878287D701ED91FC91BE016F5F7F4F27
:10483000828D938D0E94140DD701ED91FC912681FC
:104840003781260F371F3783268320853185820FD6
:10485000931F91878087BE016F5F7F4FCE01835684
:104860009F4F0E944F0DD701ED91FC91A68DB78D02
:104870009C010E946A2EBB2797FDBA95A92F982FFD
:10488000872F22853385820F931F93878287CF5B83
:10489000DE4FE881F981C154D1403196CF5BDE4FC4
:1048A000F983E883C154D1400E5D1F4F19CEC15C1E
:1048B000DE4FA881B981CF53D14012960D90BC91A3
:1048C000A02DC15CDE4FB983A883CF53D140DDCD8D
:1048D000B12CA12C8091260790912707A816B90624
:1048E0000CF0D9C22090190730901A0780911B074D
:1048F00090911C078215930509F4C9C2F1018481C6
:104900009581FC01E65BFF4FC080D1803296E0804C
:10491000F1808C010C5F1F4FC15CDE4F1982188241
:10492000CF53D1409C01285B3F4FC95BDE4F398399
:104930002883C754D140A6014A5F5F4FCB5BDE4F4F
:1049400059834883C554D140BC01625B7F4FC75B2C
:10495000DE4F79836883C954D140C95BDE4FA8819B
:10496000B981C754D1408D919C91C15CDE4FE881E3
:10497000F981CF53D140E817F9070CF083C2B60193
:10498000C8010E94390DD80118966D937D938D93BF
:104990009C931B97B701C8010E94390DF8016487E9
:1049A0007587868797879801285F3F4FCD5BDE4FDD
:1049B00039832883C354D140D6011A964D915C9116
:1049C000A085B1859A010E946A2E472E582E692E25
:1049D000772467FC7A9422273327241B350BA28582
:1049E000B3850E946A2E672F782F892F992787FD1C
:1049F0009A957A8369835C824B823C96CF5BDE4FCB
:104A0000F983E883C154D140D7011A964D915C9146
:104A1000F801A485B5859A010E946A2E472E582E6A
:104A2000692E772467FC7A94D70118968D919C9112
:104A3000480E591E22273327241B350BA685B78520
:104A40000E946A2EBB2797FDBA95A92F982F872F12
:104A5000F70126813781820F931FC356DF4F998359
:104A60008883CD59D040C156DF4F59824882CF59F3
:104A7000D040CB5BDE4F68817981C554D140CE01F7
:104A800083569F4F0E94390D65966CAF7DAF8EAFF8
:104A90009FAF6597BE016F5F7F4FCE018F5A9F4FCB
:104AA0000E94390DC352DF4F688379838A839B83C9
:104AB000CD5DD0404801F4E08F0E911CB401CE01D1
:104AC00083529F4F0E94790DD80152964D915C916F
:104AD00053975C962D913C915D97281B390B589606
:104AE0000D90BC91A02D0E946A2EBB2797FDBA9510
:104AF000A92F982F872F840F951F97FF02C090E052
:104B000080E0F801938B828BB401841B950B0E948B
:104B1000140DC355DF4F688379838A839B83CD5AF5
:104B2000D040BE0163557F4FD6015A968D919C911E
:104B30000E94140DF60126813781261B370B37831F
:104B4000268320853185A901481B590B5187408751
:104B5000BE0163557F4FCD5BDE4F88819981C35481
:104B6000D1400E944F0DF601A68DB78D9C010E9489
:104B70006A2E472F582F692F772767FD7A958285F0
:104B80009385841B950B93878287BE0163557F4F66
:104B9000D7015A968D919C910E94140DF7012681A0
:104BA0003781260F371F3783268320853185820F73
:104BB000931F91878087BE0163557F4FCF5BDE4F88
:104BC00088819981C154D1400E944F0DF701A68D73
:104BD000B78D9C010E946A2E672F782F892F992705
:104BE00087FD9A9542855385460F571F5387428705
:104BF000D6011A96ED91FC91D80118968D919C9151
:104C00009F01DC010E946A2E472E582E692E7724C0
:104C100067FC7A94222733272E1B3F0BF801A285CD
:104C2000B3850E946A2E672F782F892F992787FDD9
:104C30009A957A8369835C824B82A485B5859A01B3
:104C40000E946A2E472E582E692E772467FC7A948C
:104C5000D70118968D919C91480E591E2227332713
:104C6000241B350BA685B7850E946A2EBB2797FDAE
:104C7000BA95A92F982F872FF70126813781820FA8
:104C8000931FC356DF4F99838883CD59D040C156B7
:104C9000DF4F59824882CF59D040CB5BDE4F6881CD
:104CA0007981C554D140CE0183569F4F0E94390D62
:104CB00065966CAF7DAF8EAF9FAF6597BE016F5F9E
:104CC0007F4FCE018F5A9F4F0E94390DC352DF4F45
:104CD000688379838A839B83CD5DD040D801149605
:104CE0002D913C91A0E0BFEF0E946A2E672F782F94
:104CF000892F992787FD9A95F80126813781639638
:104D00003FAF2EAF639765967FAF6EAF6597BE01DD
:104D10006F5A7F4FCE0183529F4F0E94790D2227F9
:104D20003327281B390BF801A28DB38D0E946A2E00
:104D3000472E582E692E772467FC7A94C75BDE4F86
:104D4000A881B981C954D1402D913C91A289B389E0
:104D50000E946A2E472F582F692F772767FD7A9573
:104D60008488958888279927841B950B480C591CA3
:104D7000BC01C2010E940A0DF801958B848BBE0113
:104D80006F5A7F4F881999090E94140D69837A839D
:104D90008B839C83BE016F5F7F4FD6015A968D91A6
:104DA0009C910E94140DF60126813781261B370B3A
:104DB0003783268320853185A901481B590B5187EC
:104DC0004087BE016F5F7F4FCD5BDE4F8881998149
:104DD000C354D1400E944F0DF601A68DB78D9C01A2
:104DE0000E946A2E472F582F692F772767FD7A95E3
:104DF00082859385841B950B93878287BE016F5FA5
:104E00007F4FD7015A968D919C910E94140DF70106
:104E100026813781260F371F3783268320853185EA
:104E2000820F931F91878087BE016F5F7F4FCF5B9B
:104E3000DE4F88819981C154D1400E944F0DF70106
:104E4000A68DB78D9C010E946A2EBB2797FDBA954F
:104E5000A92F982F872F22853385820F931F938741
:104E60008287C15CDE4F28813981CF53D1402F5FCB
:104E70003F4FC15CDE4F39832883CF53D1400E5D55
:104E80001F4F6BCDD10112962D903C902FCDBFEFCF
:104E9000AB1ABB0A1FCDF12CE12C80911507909124
:104EA0001607E816F906E4F5C701880F991FE09187
:104EB0001107F0911207E80FF91F00811181B80165
:104EC0006A5F7F4F84E090E00E94140DF80120811A
:104ED0003181260F371F3183208322813381820F56
:104EE000931F9383828382859385092E000CAA0BDE
:104EF000BB0B36E0B595A795979587953A95D1F771
:104F000024813581820F931F9583848315861486AF
:104F100017861686118A108AFFEFEF1AFF0ABDCF97
:104F20008DE6282E86E0382EB12CA12C90E4892E17
:104F3000912C25EE30E02C0F3D1F2E5F3F4FCF5BB5
:104F4000DE4F39832883C154D1404DEA50E04C0FE5
:104F50005D1F4E5F5F4FCD5BDE4F59834883C35467
:104F6000D1406DE970E06C0F7D1F6E5F7F4FCB5BB2
:104F7000DE4F79836883C554D140809113069091A8
:104F80001406A816B9060CF073C2D10114966D91DF
:104F90007C91CE0101960E94A70CF101E080F18086
:104FA00002811381B1016E5E7F4F80E890E00E9424
:104FB000140D2B013C0122273327281B390BC15C20
:104FC000DE4F39832883CF53D140CC24DD24C61A49
:104FD000D70A6396DFAECEAE639765963FAF2EAF2E
:104FE0006597BE016F5A7F4FCE0101960E94E90A74
:104FF0009801280F391F6E0D7F1DCB51DF4F79832C
:105000006883C55ED040C951DF4F39832883C75EAE
:10501000D04063965FAE4EAE6397C15CDE4F488171
:105020005981CF53D14065965FAF4EAF6597BE01B2
:105030006F5A7F4FCE0101960E94E90A9801280F0E
:10504000391F6E0D7F1DC352DF4F79836883CD5D9D
:10505000D040C152DF4F39832883CF5DD040639663
:105060005FAE4EAE639765967FAE6EAE6597BE013E
:105070006F5A7F4FCE0101960E94E90A9801280FCE
:10508000391F6E0D7F1DC355DF4F79836883CD5A5D
:10509000D040C155DF4F39832883CF5AD040639623
:1050A000DFAECEAE639765967FAE6EAE6597BE01FE
:1050B0006F5A7F4FCE0101960E94E90A080F191F0F
:1050C0006E0D7F1DC356DF4F79836883CD59D04065
:1050D000C156DF4F19830883CF59D040C759DE4FDF
:1050E00088819981C956D1400E94D20AC55BDE4FA2
:1050F0009883CB54D140990F990BC45BDE4F9883B2
:10510000CC54D1406401C55BDE4F68817981CB54BA
:10511000D140C61AD70ACE0183529F4F0E94D20AAD
:10512000C35BDE4F9883CD54D140990F990BC25B7E
:10513000DE4F9883CE54D140C35BDE4FE880F980C8
:10514000CD54D14070E4E70EF11CCF5BDE4F888177
:105150009981C154D1400E94D20AC15BDE4F98832D
:10516000CF54D140990F990BC05BDE4F9883C05547
:10517000D1408401C15BDE4F88819981CF54D140F9
:10518000081B190BCE018B519F4F0E94D20ACF5A98
:10519000DE4F9883C155D140990F990BCE5ADE4FFF
:1051A0009883C255D1409601A701B801CF5ADE4F6E
:1051B00088819981C155D140805C9F4F0E94D00861
:1051C000CD5BDE4F88819981C354D1400E94D20AC1
:1051D000CD5ADE4F9883C355D140990F990BCC5AC5
:1051E000DE4F9883C455D1406401CD5ADE4FA8816B
:1051F000B981C355D140CA1ADB0ACE0183559F4FEE
:105200000E94D20ACB5ADE4F9883C555D140990FE0
:10521000990BCA5ADE4F9883C655D140CB5ADE4F00
:10522000E880F980C555D140B0E4EB0EF11CC759B8
:10523000DE4F88819981C956D1400E94D20AC95A4D
:10524000DE4F9883C755D140990F990BC85ADE4F4E
:105250009883C855D1408401C95ADE4FE881F9814D
:10526000C755D1400E1B1F0BCE0183529F4F0E948A
:10527000D20AC75ADE4F9883C955D140990F990B6E
:10528000C65ADE4F9883CA55D1409601A701B8018E
:10529000C75ADE4F88819981C955D140805C9F4FA4
:1052A0000E94D008CB5BDE4F88819981C554D140E4
:1052B0000E94D20AC55ADE4F9883CB55D140990F30
:1052C000990BC45ADE4F9883CC55D1407401C55A0E
:1052D000DE4F28813981CB55D140E21AF30AC356FB
:1052E000DF4F88819981CD59D040905C63969FAF04
:1052F0008EAF6397CE018F5A9F4F0E94D20AD92E4C
:10530000C92ECC0CCC08CD5BDE4F88819981C3546B
:10531000D1400E94D20AC35ADE4F9883CD55D14066
:10532000990F990BC25ADE4F9883CE55D140840114
:10533000C35ADE4F48815981CD55D140041B150B0E
:10534000CE0183559F4F0E94D20AC15ADE4F9883E7
:10535000CF55D140990F990BC05ADE4F9883C05654
:10536000D14097014D2D5C2DB801C15ADE4F888187
:105370009981CF55D140805C9F4F0E94D008CF5B70
:10538000DE4F88819981C154D1400E94D20ACF5901
:10539000DE4F9883C156D140990F990BCE59DE4FFD
:1053A0009883C256D1406401CF59DE4F688179811C
:1053B000C156D140C61AD70ACE018B519F4F0E94C9
:1053C000D20ACD59DE4F9883C356D140990F990B1D
:1053D000CC59DE4F9883C456D140CD59DE4FE8807A
:1053E000F980C356D14070E4E70EF11CCB5BDE4F71
:1053F00088819981C554D1400E94D20ACB59DE4F91
:105400009883C556D140990F990BCA59DE4F98839E
:10541000C656D1408401CB59DE4F88819981C5564B
:10542000D140081B190BCE0183569F4F0E94D20A10
:10543000C959DE4F9883C756D140990F990BC85967
:10544000DE4F9883C856D1409601A701B801C959CB
:10545000DE4F88819981C756D140805C9F4F0E9462
:10546000D0089FEFA91AB90AA0E22A0E311C85CDF7
:1054700080EF0E94A408882349F00E94A70E109292
:1054800014061092130681E00E94830F84E00E94AC
:10549000A408882349F00E94A70E109214061092C7
:1054A000130680E00E94830F88E00E94A4088823EE
:1054B00031F080910C0191E0892780930C010E94CA
:1054C000AF080C94231762E2F901DC0101900D9200
:1054D0006A95E1F7F80162897389DC0153967C9340
:1054E0006E9352976489758955967C936E93549701
:1054F0006689778957967C936E9356974F5F5F4F77
:105500002E5D3F4F82964416550611F00C940421EF
:10551000940190E080E062E2F501D90114960190D7
:105520000D926A95E1F70196B2E2AB0EB11C2E5DC9
:105530003F4F4817590779F7F401E85BFF4F518354
:1055400040830C94B11862E2F901DC0101900D92E4
:105550006A95E1F7D3CF80911D0790911E07892BA3
:1055600019F00E947B0EF7CFE0911907F0911A070E
:10557000848195810E94D52B8091190790911A07FB
:10558000009711F00E94D52B80911107909112077E
:105590000E94D52B82E597E00E94340888E297E0CC
:1055A0000C947C080F931F93CF93DF93009759F4CB
:1055B0006115710541F4F0E0E0E0CF01DF91CF919A
:1055C0001F910F9108958B01EC016EE070E081E076
:1055D00090E00E941D2BFC01892B69F380E88383F6
:1055E0000115110571F01387028781E8838380918B
:1055F000800790918107892B21F4F0938107E09334
:1056000080072097D1F2D187C0878381826083830E
:105610008091820790918307892B79F6F093830715
:10562000E09382078091840790918507892B29F662
:10563000F0938507E0938407C0CF0F931F93CF9318
:10564000DF93869F8001879F100D969F100D112478
:10565000C8010E94392BEC01009729F0A80170E0E5
:1056600060E00E945E2CCE01DF91CF911F910F91DF
:1056700008950F931F93CF93DF938230910510F419
:1056800082E090E0E0918807F091890730E020E027
:10569000B0E0A0E0309799F42115310509F44AC033
:1056A000281B390B24303105D8F58A819B8161157F
:1056B000710589F1FB0193838283FE0111C0408152
:1056C00051810281138148175907E0F048175907A3
:1056D00099F4109761F012960C93129713961C93FD
:1056E0003296CF01DF91CF911F910F9108950093D2
:1056F000880710938907F4CF2115310551F042171F
:10570000530738F0A901DB019A01BD01DF01F8015F
:10571000C1CFEF01F9CF9093890780938807CDCF50
:10572000FE01E20FF31F81939193225031093983D7
:105730002883D7CF2091860730918707232B41F408
:1057400020910F0130911001309387072093860735
:1057500020910D0130910E012115310541F42DB735
:105760003EB74091110150911201241B350BE0917D
:105770008607F0918707E217F307A0F42E1B3F0B73
:105780002817390778F0AC014E5F5F4F24173507B3
:1057900048F04E0F5F1F5093870740938607819311
:1057A00091939FCFF0E0E0E09CCFCF93DF93009701
:1057B000E9F0FC01329713821282A0918807B09120
:1057C0008907ED0130E020E01097A1F420813181BC
:1057D000820F931F2091860730918707281739077A
:1057E00009F061C0F0938707E0938607DF91CF91BE
:1057F0000895EA01CE17DF07E8F54A815B819E0133
:1058000041155105B1F7E901FB83EA8349915991AB
:10581000C40FD51FEC17FD0761F4808191810296BA
:10582000840F951FE90199838883828193819B83EB
:105830008A83F0E0E0E012968D919C911397009797
:10584000B9F52D913C911197CD010296820F931FCE
:1058500020918607309187072817390739F6309746
:1058600051F51092890710928807B0938707A0938B
:105870008607BCCFD383C28340815181840F951F9B
:10588000C817D90761F44E5F5F4F88819981480F2F
:10589000591F518340838A819B8193838283211581
:1058A000310509F0B0CFF0938907E09388079ECFC8
:1058B000FD01DC01C0CF13821282D7CFDC0101C011
:1058C0006D9341505040E0F70895F999FECF92BD95
:1058D00081BDF89A992780B50895262FF999FECFB2
:1058E0001FBA92BD81BD20BD0FB6F894FA9AF99AFD
:1058F0000FBE01960895052E97FB1EF400940E949A
:10590000922C57FD07D00E94AD2C07FC03D04EF41B
:105910000C94922C50954095309521953F4F4F4FC8
:105920005F4F089590958095709561957F4F8F4F4B
:105930009F4F08950E94CF2CA59F900DB49F900D6E
:10594000A49F800D911D11240895B7FF0C949A2CEB
:105950000E949A2C821B930B0895A1E21A2EAA1B77
:10596000BB1BFD010DC0AA1FBB1FEE1FFF1FA2170F
:10597000B307E407F50720F0A21BB30BE40BF50B0C
:10598000661F771F881F991F1A9469F76095709595
:10599000809590959B01AC01BD01CF010895A29F18
:1059A000B001B39FC001A39F700D811D1124911DF3
:1059B000B29F700D811D1124911D08950E94E52C48
:1059C0006894B1110C94742D08950E94592D88F09B
:1059D0009F5798F0B92F9927B751B0F0E1F0660FB3
:1059E000771F881F991F1AF0BA95C9F714C0B130F4
:1059F00091F00E94732DB1E008950C94732D672FE0
:105A0000782F8827B85F39F0B93FCCF38695779522
:105A10006795B395D9F73EF490958095709561950B
:105A20007F4F8F4F9F4F0895E89409C097FB3EF436
:105A300090958095709561957F4F8F4F9F4F9923DB
:105A4000A9F0F92F96E9BB279395F6958795779559
:105A50006795B795F111F8CFFAF4BB0F11F460FF19
:105A60001BC06F5F7F4F8F4F9F4F16C0882311F071
:105A700096E911C0772321F09EE8872F762F05C085
:105A8000662371F096E8862F70E060E02AF09A9520
:105A9000660F771F881FDAF7880F9695879597F915
:105AA000089557FD9058440F551F59F05F3F71F00E
:105AB0004795880F97FB991F61F09F3F79F0879575
:105AC0000895121613061406551FF2CF4695F1DFFE
:105AD00008C0161617061806991FF1CF869571058E
